:100000000C9436000C94E7000C9428010C94B60074
:100010000C9436010C9436010C9436010C94360184
:100020000C9436010C9436010C9436010C94360174
:100030000C9436010C9436010C9436010C94360164
:100040000C9436010C9436010C9436010C9460002B
:100050000C94360100600067800067006800027041
:1000600000680069800069006A00027111241FBEE7
:10007000CFE5D4E0DEBFCDBFE4E5F0E040E017C05F
:10008000B591A59135912591059107FD0CC09591EC
:100090008591EF01F92FE82F05900D92A217B30774
:1000A000D9F7FE0104C01D92A217B307E1F7EC36A1
:1000B000F40731F70E9412010C945E00F894FFCF10
:1000C0001F920F920FB60F9211248F939F93EF936D
:1000D000FF93809165008330E9F51092650080916F
:1000E0006600E82FF0E099B3EF59FF4F908381113C
:1000F0000FC0933020F488B3816088BB03C088B3FD
:100100008E7F88BB809166008F5F8093660025C0DC
:100110008130D9F48DE093E09BBD8ABDE09166000B
:10012000F0E0EF59FF4F8081823328F48AE492E0B7
:1001300099BD88BD04C083EC90E099BD88BD8091D5
:1001400066008F5F8093660008C0823031F41092A1
:10015000660003C08F5F80936500FF91EF919F91D0
:0C0160008F910F900FBE0F901F9018950C
:10016C001F920F920FB60F9211248F939F93EF93C0
:10017C00FF9380916900807F80936000E09168001C
:10018C0091E09E0F90936800F0E0EF59FF4F908143
:10019C00890F85BB80916900880F809369008091DD
:1001AC006800843029F4109268008FEE8093690007
:1001BC00FF91EF919F918F910F900FBE0F901F9019
:0201CC00189584
:1001CE001F920F920FB60F9211248F939F938091CF
:1001DE006700813091F484EC8CBF8DE083BF1BBC33
:1001EE001ABC19BC18BC93E29FBD8EBD87E283BDBD
:1001FE008FE085BD1092670007C013BE1FBC1EBCEA
:10020E0015BC81E0809367009F918F910F900FBE78
:06021E000F901F901895DF
:1002240081B381BB81B381BB1ABA81B3806181BBC5
:1002340087B3816087BB84B38FEF84BB80EC8BBFB3
:0C02440089E085BF82E889BF7894FFCF75
:100250001F920F920FB60F92112413BE1FBC1EBC2B
:0C02600015BC0F900FBE0F901F9018955A
:04026C000C940000EE
:01027000018C
:01027100EF9D
:00000001FF
