:100000000C9436000C94DB000C9421010C94AA0093
:100010000C942F010C942F010C942F010C942F01A0
:100020000C942F010C942F010C942F010C942F0190
:100030000C942F010C942F010C942F010C942F0180
:100040000C942F010C942F010C942F010C94600040
:100050000C942F0100600066800066006700026259
:1000600000670068800068006900026311241FBEF9
:10007000CFE5D4E0DEBFCDBFE4E5F0E040E017C05F
:10008000B591A59135912591059107FD0CC09591EC
:100090008591EF01F92FE82F05900D92A217B30774
:1000A000D9F7FE0104C01D92A217B307E1F7EC36A1
:1000B000F40731F70E940B010C945E00F894FFCF17
:1000C0001F920F920FB60F9211248F939F93EF936D
:1000D000FF9380916400833089F5109264008091D1
:1000E0006500E82FF0E099B3EF59FF4F908381113D
:1000F00004C08F5F8093650024C0813089F4943000
:1001000028F48AE492E099BD88BD04C083EC90E0B5
:1001100099BD88BD809165008F5F8093650011C097
:10012000823079F4933020F488B3816088BB03C0B7
:1001300088B38E7F88BB1092650003C08F5F809369
:100140006400FF91EF919F918F910F900FBE0F90E0
:040150001F9018954F
:100154001F920F920FB60F9211248F939F93EF93D8
:10016400FF9380916800807F80936000E091670036
:1001740091E09E0F90936700F0E0EF59FF4F90815C
:10018400890F85BB80916800880F809368008091F7
:100194006700833028F0109267008FED8093680029
:1001A400FF91EF919F918F910F900FBE0F901F9031
:0201B40018959C
:1001B6001F920F920FB60F9211248F939F938091E7
:1001C60066008130B9F484EC8CBF8DE083BF8DE08E
:1001D60093E09BBD8ABD19BC18BC8FB583628FBDE9
:1001E6008EB58D618EBD87E283BD8FE085BD109291
:1001F600660007C013BE1FBC1EBC15BC81E0809301
:1002060066009F918F910F900FBE0F901F901895CB
:1002160081B381BB81B381BB1ABA81B3806181BBD3
:1002260087B3816087BB84B38FEF84BB80EC8BBFC1
:0C02360089E085BF82E889BF7894FFCF83
:100242001F920F920FB60F92112413BE1FBC1EBC39
:0C02520015BC0F900FBE0F901F90189568
:04025E000C940000FC
:01026200019A
:01026300DFBB
:00000001FF
