:100000000C9430000C947B000C94B1000C945A00BA
:100010000C94B1000C94B1000C94B1000C94B1009C
:100020000C94B1000C94B1000C94B1000C94B1008C
:100030000C94B1000C94B1000C94B1000C94B1007C
:100040000C94B1000C94B1000C94B1000C94B1006C
:100050000C94B100006000648000640065000166DB
:1000600011241FBECFE5D4E0DEBFCDBFE4E5F0E054
:1000700040E017C0B591A59135912591059107FDF7
:100080000CC095918591EF01F92FE82F05900D9205
:10009000A217B307D9F7FE0104C01D92A217B30738
:1000A000E1F7E036F40731F70E949B000C9458000A
:0400B000F894FFCFF2
:1000B4001F920F920FB60F9211248F939F93EF9379
:1000C400FF9380916300E82FF0E09BB3E05AFF4F69
:1000D40090838F5F80936300823011F410926300E9
:1000E400FF91EF919F918F910F900FBE0F901F90F2
:0200F40018955D
:1000F6001F920F920FB60F9211248F938091640076
:10010600813051F487E083BD8FE085BD8091640026
:1001160081508093640006C015BC809164008F5F97
:10012600809364008F910F900FBE0F901F901895CB
:1001360081B381BB81B381BB1ABA87B3886087BBA1
:1001460087B3816087BB84B38FEF84BB789480EAE2
:0C0156008BBF89E085BF80E889BFFFCF28
:040162000C940000F9
:010166000197
:00000001FF
