:100000000C9436000C94EA000C9430010C94B90066
:100010000C943E010C943E010C943E010C943E0164
:100020000C943E010C943E010C943E010C943E0154
:100030000C943E010C943E010C943E010C943E0144
:100040000C943E010C943E010C943E010C94610012
:100050000C943E010060006780006700680000C1EA
:1000600000680069800069006A00028011241FBED8
:10007000CFE5D4E0DEBFCDBFE4E5F0E040E017C05F
:10008000B591A59135912591059107FD0CC09591EC
:100090008591EF01F92FE82F05900D92A217B30774
:1000A000D9F7FE0104C01D92A217B307E1F7EC36A1
:1000B000F40731F70E941A010C945E00F894FFCF08
:0100C000043B
:0100C100013D
:1000C2001F920F920FB60F9211248F939F93AF93AB
:1000D200EF93FF9380916500833009F03CC010924A
:1000E200650080916600E82FF0E099B3EE59FF4F6A
:1000F2009083811104C08F5F809366002FC081308E
:10010200E1F480EC90E0A0E0FC0184918093600037
:1001120090916300981728F48AE492E099BD88BD13
:1001220006C0981720F083EC90E099BD88BD8091BD
:1001320066008F5F8093660011C0823079F493303D
:1001420020F488B3816088BB03C088B38E7F88BBEC
:100152001092660003C08F5F80936500FF91EF915C
:10016200AF919F918F910F900FBE0F901F90189596
:100172001F920F920FB60F9211248F939F93EF93BA
:10018200FF9380916900807F80936100E091680015
:1001920091E09E0F90936800F0E0EE59FF4F90813E
:1001A200890F85BB80916900880F809369008091D7
:1001B2006800833028F0109268008FED8093690008
:1001C200FF91EF919F918F910F900FBE0F901F9013
:0201D20018957E
:1001D4001F920F920FB60F9211248F939F938091C9
:1001E40067008130B9F484EC8CBF8DE083BF8DE06F
:1001F40093E09BBD8ABD19BC18BC8FB583628FBDCB
:100204008EB58D618EBD87E283BD8FE085BD109272
:10021400670007C013BE1FBC1EBC15BC81E08093E1
:1002240067009F918F910F900FBE0F901F901895AC
:1002340081B381BB81B381BB1ABA81B3806181BBB5
:1002440087B3816087BB84B38FEF84BB80EC8BBFA3
:0C02540089E085BF82E889BF7894FFCF65
:100260001F920F920FB60F92112413BE1FBC1EBC1B
:0C02700015BC0F900FBE0F901F9018954A
:04027C000C940000DE
:01028000DF9E
:00000001FF
